{
  "_format": "hh-sol-artifact-1",
  "contractName": "Exchange",
  "sourceName": "contracts/Exchange.sol",
  "abi": [
    {
      "inputs": [
        {
          "internalType": "address",
          "name": "_feeAccount",
          "type": "address"
        },
        {
          "internalType": "uint256",
          "name": "_feePercent",
          "type": "uint256"
        }
      ],
      "stateMutability": "nonpayable",
      "type": "constructor"
    },
    {
      "anonymous": false,
      "inputs": [
        {
          "indexed": false,
          "internalType": "uint256",
          "name": "_id",
          "type": "uint256"
        },
        {
          "indexed": false,
          "internalType": "address",
          "name": "_user",
          "type": "address"
        },
        {
          "indexed": false,
          "internalType": "address",
          "name": "_tokenGet",
          "type": "address"
        },
        {
          "indexed": false,
          "internalType": "uint256",
          "name": "_amountGet",
          "type": "uint256"
        },
        {
          "indexed": false,
          "internalType": "address",
          "name": "_tokenGive",
          "type": "address"
        },
        {
          "indexed": false,
          "internalType": "uint256",
          "name": "_amountGive",
          "type": "uint256"
        },
        {
          "indexed": false,
          "internalType": "uint256",
          "name": "_timestamp",
          "type": "uint256"
        }
      ],
      "name": "CancelOrder",
      "type": "event"
    },
    {
      "anonymous": false,
      "inputs": [
        {
          "indexed": true,
          "internalType": "address",
          "name": "_token",
          "type": "address"
        },
        {
          "indexed": true,
          "internalType": "address",
          "name": "_user",
          "type": "address"
        },
        {
          "indexed": false,
          "internalType": "uint256",
          "name": "_amount",
          "type": "uint256"
        },
        {
          "indexed": false,
          "internalType": "uint256",
          "name": "_balance",
          "type": "uint256"
        }
      ],
      "name": "DepositToken",
      "type": "event"
    },
    {
      "anonymous": false,
      "inputs": [
        {
          "indexed": false,
          "internalType": "uint256",
          "name": "_id",
          "type": "uint256"
        },
        {
          "indexed": false,
          "internalType": "address",
          "name": "_user",
          "type": "address"
        },
        {
          "indexed": false,
          "internalType": "address",
          "name": "_tokenGet",
          "type": "address"
        },
        {
          "indexed": false,
          "internalType": "uint256",
          "name": "_amountGet",
          "type": "uint256"
        },
        {
          "indexed": false,
          "internalType": "address",
          "name": "_tokenGive",
          "type": "address"
        },
        {
          "indexed": false,
          "internalType": "uint256",
          "name": "_amountGive",
          "type": "uint256"
        },
        {
          "indexed": false,
          "internalType": "uint256",
          "name": "_timestamp",
          "type": "uint256"
        }
      ],
      "name": "NewOrder",
      "type": "event"
    },
    {
      "anonymous": false,
      "inputs": [
        {
          "indexed": false,
          "internalType": "uint256",
          "name": "_id",
          "type": "uint256"
        },
        {
          "indexed": false,
          "internalType": "address",
          "name": "_user",
          "type": "address"
        },
        {
          "indexed": false,
          "internalType": "address",
          "name": "_tokenGet",
          "type": "address"
        },
        {
          "indexed": false,
          "internalType": "uint256",
          "name": "_amountGet",
          "type": "uint256"
        },
        {
          "indexed": false,
          "internalType": "address",
          "name": "_tokenGive",
          "type": "address"
        },
        {
          "indexed": false,
          "internalType": "uint256",
          "name": "_amountGive",
          "type": "uint256"
        },
        {
          "indexed": false,
          "internalType": "address",
          "name": "_creator",
          "type": "address"
        },
        {
          "indexed": false,
          "internalType": "uint256",
          "name": "_timestamp",
          "type": "uint256"
        }
      ],
      "name": "Trade",
      "type": "event"
    },
    {
      "anonymous": false,
      "inputs": [
        {
          "indexed": true,
          "internalType": "address",
          "name": "_token",
          "type": "address"
        },
        {
          "indexed": true,
          "internalType": "address",
          "name": "_user",
          "type": "address"
        },
        {
          "indexed": false,
          "internalType": "uint256",
          "name": "_amount",
          "type": "uint256"
        },
        {
          "indexed": false,
          "internalType": "uint256",
          "name": "_balance",
          "type": "uint256"
        }
      ],
      "name": "WithdrawToken",
      "type": "event"
    },
    {
      "inputs": [
        {
          "internalType": "address",
          "name": "_token",
          "type": "address"
        }
      ],
      "name": "balanceOf",
      "outputs": [
        {
          "internalType": "uint256",
          "name": "",
          "type": "uint256"
        }
      ],
      "stateMutability": "view",
      "type": "function"
    },
    {
      "inputs": [
        {
          "internalType": "uint256",
          "name": "_id",
          "type": "uint256"
        }
      ],
      "name": "cancelOrder",
      "outputs": [],
      "stateMutability": "nonpayable",
      "type": "function"
    },
    {
      "inputs": [
        {
          "internalType": "address",
          "name": "_token",
          "type": "address"
        },
        {
          "internalType": "uint256",
          "name": "_amount",
          "type": "uint256"
        }
      ],
      "name": "depositToken",
      "outputs": [],
      "stateMutability": "nonpayable",
      "type": "function"
    },
    {
      "inputs": [],
      "name": "feeAccount",
      "outputs": [
        {
          "internalType": "address",
          "name": "",
          "type": "address"
        }
      ],
      "stateMutability": "view",
      "type": "function"
    },
    {
      "inputs": [],
      "name": "feePercent",
      "outputs": [
        {
          "internalType": "uint256",
          "name": "",
          "type": "uint256"
        }
      ],
      "stateMutability": "view",
      "type": "function"
    },
    {
      "inputs": [
        {
          "internalType": "uint256",
          "name": "_id",
          "type": "uint256"
        }
      ],
      "name": "fillOrder",
      "outputs": [],
      "stateMutability": "nonpayable",
      "type": "function"
    },
    {
      "inputs": [
        {
          "internalType": "address",
          "name": "_tokenGet",
          "type": "address"
        },
        {
          "internalType": "uint256",
          "name": "_amountGet",
          "type": "uint256"
        },
        {
          "internalType": "address",
          "name": "_tokenGive",
          "type": "address"
        },
        {
          "internalType": "uint256",
          "name": "_amountGive",
          "type": "uint256"
        }
      ],
      "name": "makeOrder",
      "outputs": [],
      "stateMutability": "nonpayable",
      "type": "function"
    },
    {
      "inputs": [
        {
          "internalType": "uint256",
          "name": "",
          "type": "uint256"
        }
      ],
      "name": "orderCanceled",
      "outputs": [
        {
          "internalType": "bool",
          "name": "",
          "type": "bool"
        }
      ],
      "stateMutability": "view",
      "type": "function"
    },
    {
      "inputs": [],
      "name": "orderCount",
      "outputs": [
        {
          "internalType": "uint256",
          "name": "",
          "type": "uint256"
        }
      ],
      "stateMutability": "view",
      "type": "function"
    },
    {
      "inputs": [
        {
          "internalType": "uint256",
          "name": "",
          "type": "uint256"
        }
      ],
      "name": "orderFilled",
      "outputs": [
        {
          "internalType": "bool",
          "name": "",
          "type": "bool"
        }
      ],
      "stateMutability": "view",
      "type": "function"
    },
    {
      "inputs": [
        {
          "internalType": "uint256",
          "name": "",
          "type": "uint256"
        }
      ],
      "name": "orders",
      "outputs": [
        {
          "internalType": "uint256",
          "name": "id",
          "type": "uint256"
        },
        {
          "internalType": "address",
          "name": "user",
          "type": "address"
        },
        {
          "internalType": "address",
          "name": "tokenGet",
          "type": "address"
        },
        {
          "internalType": "uint256",
          "name": "amountGet",
          "type": "uint256"
        },
        {
          "internalType": "address",
          "name": "tokenGive",
          "type": "address"
        },
        {
          "internalType": "uint256",
          "name": "amountGive",
          "type": "uint256"
        },
        {
          "internalType": "uint256",
          "name": "timeStamp",
          "type": "uint256"
        }
      ],
      "stateMutability": "view",
      "type": "function"
    },
    {
      "inputs": [
        {
          "internalType": "address",
          "name": "",
          "type": "address"
        },
        {
          "internalType": "address",
          "name": "",
          "type": "address"
        }
      ],
      "name": "userBalance",
      "outputs": [
        {
          "internalType": "uint256",
          "name": "",
          "type": "uint256"
        }
      ],
      "stateMutability": "view",
      "type": "function"
    },
    {
      "inputs": [
        {
          "internalType": "address",
          "name": "_token",
          "type": "address"
        },
        {
          "internalType": "uint256",
          "name": "_amount",
          "type": "uint256"
        }
      ],
      "name": "withdrawToken",
      "outputs": [],
      "stateMutability": "nonpayable",
      "type": "function"
    }
  ],
  "bytecode": "0x60806040523480156200001157600080fd5b50604051620021533803806200215383398181016040528101906200003791906200012b565b816000806101000a81548173ffffffffffffffffffffffffffffffffffffffff021916908373ffffffffffffffffffffffffffffffffffffffff16021790555080600181905550505062000172565b600080fd5b600073ffffffffffffffffffffffffffffffffffffffff82169050919050565b6000620000b8826200008b565b9050919050565b620000ca81620000ab565b8114620000d657600080fd5b50565b600081519050620000ea81620000bf565b92915050565b6000819050919050565b6200010581620000f0565b81146200011157600080fd5b50565b6000815190506200012581620000fa565b92915050565b6000806040838503121562000145576200014462000086565b5b60006200015585828601620000d9565b9250506020620001688582860162000114565b9150509250929050565b611fd180620001826000396000f3fe608060405234801561001057600080fd5b50600436106100cf5760003560e01c806367b830ad1161008c5780639a5c90aa116100665780639a5c90aa146102125780639e281a981461022e578063a85c38ef1461024a578063c0977a3814610280576100cf565b806367b830ad146101a857806370a08231146101c45780637fd6f15c146101f4576100cf565b80632453ffa8146100d4578063338b5dea146100f25780634a93e0da1461010e578063514fcac71461013e57806362a4b0a91461015a57806365e17c9d1461018a575b600080fd5b6100dc6102b0565b6040516100e991906116c0565b60405180910390f35b61010c6004803603810190610107919061176a565b6102b6565b005b610128600480360381019061012391906117aa565b610535565b60405161013591906117f2565b60405180910390f35b610158600480360381019061015391906117aa565b610555565b005b610174600480360381019061016f919061180d565b61070b565b60405161018191906116c0565b60405180910390f35b610192610730565b60405161019f919061185c565b60405180910390f35b6101c260048036038101906101bd91906117aa565b610754565b005b6101de60048036038101906101d99190611877565b610938565b6040516101eb91906116c0565b60405180910390f35b6101fc6109be565b60405161020991906116c0565b60405180910390f35b61022c600480360381019061022791906118a4565b6109c4565b005b6102486004803603810190610243919061176a565b610bfe565b005b610264600480360381019061025f91906117aa565b610f3a565b604051610277979695949392919061190b565b60405180910390f35b61029a600480360381019061029591906117aa565b610fdc565b6040516102a791906117f2565b60405180910390f35b60045481565b8173ffffffffffffffffffffffffffffffffffffffff166323b872dd3330846040518463ffffffff1660e01b81526004016102f39392919061197a565b602060405180830381600087803b15801561030d57600080fd5b505af1158015610321573d6000803e3d6000fd5b505050506040513d601f19601f8201168201806040525081019061034591906119dd565b5080600260008473ffffffffffffffffffffffffffffffffffffffff1673ffffffffffffffffffffffffffffffffffffffff16815260200190815260200160002060003373ffffffffffffffffffffffffffffffffffffffff1673ffffffffffffffffffffffffffffffffffffffff168152602001908152602001600020546103ce9190611a39565b600260008473ffffffffffffffffffffffffffffffffffffffff1673ffffffffffffffffffffffffffffffffffffffff16815260200190815260200160002060003373ffffffffffffffffffffffffffffffffffffffff1673ffffffffffffffffffffffffffffffffffffffff168152602001908152602001600020819055503373ffffffffffffffffffffffffffffffffffffffff168273ffffffffffffffffffffffffffffffffffffffff167fbb01c612a93e37305a5f1f7b8ed63ea61211be444f722915b9dc827c0bdbffcc83600260008773ffffffffffffffffffffffffffffffffffffffff1673ffffffffffffffffffffffffffffffffffffffff16815260200190815260200160002060003373ffffffffffffffffffffffffffffffffffffffff1673ffffffffffffffffffffffffffffffffffffffff16815260200190815260200160002054604051610529929190611a8f565b60405180910390a35050565b60066020528060005260406000206000915054906101000a900460ff1681565b60006003600083815260200190815260200160002090508060010160009054906101000a900473ffffffffffffffffffffffffffffffffffffffff1673ffffffffffffffffffffffffffffffffffffffff163373ffffffffffffffffffffffffffffffffffffffff16146105fe576040517f08c379a00000000000000000000000000000000000000000000000000000000081526004016105f590611b15565b60405180910390fd5b80600001548214610644576040517f08c379a000000000000000000000000000000000000000000000000000000000815260040161063b90611b81565b60405180910390fd5b60016005600084815260200190815260200160002060006101000a81548160ff0219169083151502179055507f8ad5af334aaf597f15dd597da702fda54fdf739d22e2c11afc21612c49cd38ec8160000154338360020160009054906101000a900473ffffffffffffffffffffffffffffffffffffffff1684600301548560040160009054906101000a900473ffffffffffffffffffffffffffffffffffffffff168660050154426040516106ff979695949392919061190b565b60405180910390a15050565b6002602052816000526040600020602052806000526040600020600091509150505481565b60008054906101000a900473ffffffffffffffffffffffffffffffffffffffff1681565b60008111801561076657506004548111155b6107a5576040517f08c379a000000000000000000000000000000000000000000000000000000000815260040161079c90611bed565b60405180910390fd5b6005600082815260200190815260200160002060009054906101000a900460ff1615610806576040517f08c379a00000000000000000000000000000000000000000000000000000000081526004016107fd90611c59565b60405180910390fd5b6006600082815260200190815260200160002060009054906101000a900460ff1615610867576040517f08c379a000000000000000000000000000000000000000000000000000000000815260040161085e90611cc5565b60405180910390fd5b600060036000838152602001908152602001600020905061090481600001548260010160009054906101000a900473ffffffffffffffffffffffffffffffffffffffff168360020160009054906101000a900473ffffffffffffffffffffffffffffffffffffffff1684600301548560040160009054906101000a900473ffffffffffffffffffffffffffffffffffffffff168660050154610ffc565b6001600660008360000154815260200190815260200160002060006101000a81548160ff0219169083151502179055505050565b6000600260008373ffffffffffffffffffffffffffffffffffffffff1673ffffffffffffffffffffffffffffffffffffffff16815260200190815260200160002060003373ffffffffffffffffffffffffffffffffffffffff1673ffffffffffffffffffffffffffffffffffffffff168152602001908152602001600020549050919050565b60015481565b806109ce83610938565b1015610a0f576040517f08c379a0000000000000000000000000000000000000000000000000000000008152600401610a0690611d31565b60405180910390fd5b60046000815480929190610a2290611d51565b91905055506040518060e0016040528060045481526020013373ffffffffffffffffffffffffffffffffffffffff1681526020018573ffffffffffffffffffffffffffffffffffffffff1681526020018481526020018373ffffffffffffffffffffffffffffffffffffffff168152602001828152602001428152506003600060045481526020019081526020016000206000820151816000015560208201518160010160006101000a81548173ffffffffffffffffffffffffffffffffffffffff021916908373ffffffffffffffffffffffffffffffffffffffff16021790555060408201518160020160006101000a81548173ffffffffffffffffffffffffffffffffffffffff021916908373ffffffffffffffffffffffffffffffffffffffff1602179055506060820151816003015560808201518160040160006101000a81548173ffffffffffffffffffffffffffffffffffffffff021916908373ffffffffffffffffffffffffffffffffffffffff16021790555060a0820151816005015560c082015181600601559050507f850f2cb17d7daa3735cdb35e4d711f15a895ee8f2323731b6fa4ec2eae1b78e9600454338686868642604051610bf0979695949392919061190b565b60405180910390a150505050565b80600260008473ffffffffffffffffffffffffffffffffffffffff1673ffffffffffffffffffffffffffffffffffffffff16815260200190815260200160002060003373ffffffffffffffffffffffffffffffffffffffff1673ffffffffffffffffffffffffffffffffffffffff168152602001908152602001600020541015610cbd576040517f08c379a0000000000000000000000000000000000000000000000000000000008152600401610cb490611de6565b60405180910390fd5b80600260008473ffffffffffffffffffffffffffffffffffffffff1673ffffffffffffffffffffffffffffffffffffffff16815260200190815260200160002060003373ffffffffffffffffffffffffffffffffffffffff1673ffffffffffffffffffffffffffffffffffffffff16815260200190815260200160002054610d459190611e06565b600260008473ffffffffffffffffffffffffffffffffffffffff1673ffffffffffffffffffffffffffffffffffffffff16815260200190815260200160002060003373ffffffffffffffffffffffffffffffffffffffff1673ffffffffffffffffffffffffffffffffffffffff168152602001908152602001600020819055508173ffffffffffffffffffffffffffffffffffffffff1663a9059cbb33836040518363ffffffff1660e01b8152600401610e00929190611e3a565b602060405180830381600087803b158015610e1a57600080fd5b505af1158015610e2e573d6000803e3d6000fd5b505050506040513d601f19601f82011682018060405250810190610e5291906119dd565b503373ffffffffffffffffffffffffffffffffffffffff168273ffffffffffffffffffffffffffffffffffffffff167fa69fc39b702a6e8195370ae2252cc11b4445837cc4abe15ac39123f2f2d8770d83600260008773ffffffffffffffffffffffffffffffffffffffff1673ffffffffffffffffffffffffffffffffffffffff16815260200190815260200160002060003373ffffffffffffffffffffffffffffffffffffffff1673ffffffffffffffffffffffffffffffffffffffff16815260200190815260200160002054604051610f2e929190611a8f565b60405180910390a35050565b60036020528060005260406000206000915090508060000154908060010160009054906101000a900473ffffffffffffffffffffffffffffffffffffffff16908060020160009054906101000a900473ffffffffffffffffffffffffffffffffffffffff16908060030154908060040160009054906101000a900473ffffffffffffffffffffffffffffffffffffffff16908060050154908060060154905087565b60056020528060005260406000206000915054906101000a900460ff1681565b600060646001548561100e9190611e63565b6110189190611eec565b905080826110269190611a39565b600260008773ffffffffffffffffffffffffffffffffffffffff1673ffffffffffffffffffffffffffffffffffffffff16815260200190815260200160002060003373ffffffffffffffffffffffffffffffffffffffff1673ffffffffffffffffffffffffffffffffffffffff1681526020019081526020016000205410156110e4576040517f08c379a00000000000000000000000000000000000000000000000000000000081526004016110db90611d31565b60405180910390fd5b8084600260008873ffffffffffffffffffffffffffffffffffffffff1673ffffffffffffffffffffffffffffffffffffffff16815260200190815260200160002060003373ffffffffffffffffffffffffffffffffffffffff1673ffffffffffffffffffffffffffffffffffffffff1681526020019081526020016000205461116d9190611e06565b6111779190611e06565b600260008773ffffffffffffffffffffffffffffffffffffffff1673ffffffffffffffffffffffffffffffffffffffff16815260200190815260200160002060003373ffffffffffffffffffffffffffffffffffffffff1673ffffffffffffffffffffffffffffffffffffffff1681526020019081526020016000208190555083600260008773ffffffffffffffffffffffffffffffffffffffff1673ffffffffffffffffffffffffffffffffffffffff16815260200190815260200160002060008873ffffffffffffffffffffffffffffffffffffffff1673ffffffffffffffffffffffffffffffffffffffff1681526020019081526020016000205461127f9190611a39565b600260008773ffffffffffffffffffffffffffffffffffffffff1673ffffffffffffffffffffffffffffffffffffffff16815260200190815260200160002060008873ffffffffffffffffffffffffffffffffffffffff1673ffffffffffffffffffffffffffffffffffffffff1681526020019081526020016000208190555080600260008773ffffffffffffffffffffffffffffffffffffffff1673ffffffffffffffffffffffffffffffffffffffff16815260200190815260200160002060008060009054906101000a900473ffffffffffffffffffffffffffffffffffffffff1673ffffffffffffffffffffffffffffffffffffffff1673ffffffffffffffffffffffffffffffffffffffff168152602001908152602001600020546113a89190611a39565b600260008773ffffffffffffffffffffffffffffffffffffffff1673ffffffffffffffffffffffffffffffffffffffff16815260200190815260200160002060008060009054906101000a900473ffffffffffffffffffffffffffffffffffffffff1673ffffffffffffffffffffffffffffffffffffffff1673ffffffffffffffffffffffffffffffffffffffff1681526020019081526020016000208190555081600260008573ffffffffffffffffffffffffffffffffffffffff1673ffffffffffffffffffffffffffffffffffffffff16815260200190815260200160002060003373ffffffffffffffffffffffffffffffffffffffff1673ffffffffffffffffffffffffffffffffffffffff168152602001908152602001600020546114d19190611a39565b600260008573ffffffffffffffffffffffffffffffffffffffff1673ffffffffffffffffffffffffffffffffffffffff16815260200190815260200160002060003373ffffffffffffffffffffffffffffffffffffffff1673ffffffffffffffffffffffffffffffffffffffff1681526020019081526020016000208190555081600260008573ffffffffffffffffffffffffffffffffffffffff1673ffffffffffffffffffffffffffffffffffffffff16815260200190815260200160002060008873ffffffffffffffffffffffffffffffffffffffff1673ffffffffffffffffffffffffffffffffffffffff168152602001908152602001600020546115d99190611e06565b600260008573ffffffffffffffffffffffffffffffffffffffff1673ffffffffffffffffffffffffffffffffffffffff16815260200190815260200160002060008873ffffffffffffffffffffffffffffffffffffffff1673ffffffffffffffffffffffffffffffffffffffff168152602001908152602001600020819055507f0dddf4182dc0fc1a311cb75f049c97403c6b8a99cf6b2229a36e7c526acb3f818733878787878c42604051611696989796959493929190611f1d565b60405180910390a150505050505050565b6000819050919050565b6116ba816116a7565b82525050565b60006020820190506116d560008301846116b1565b92915050565b600080fd5b600073ffffffffffffffffffffffffffffffffffffffff82169050919050565b600061170b826116e0565b9050919050565b61171b81611700565b811461172657600080fd5b50565b60008135905061173881611712565b92915050565b611747816116a7565b811461175257600080fd5b50565b6000813590506117648161173e565b92915050565b60008060408385031215611781576117806116db565b5b600061178f85828601611729565b92505060206117a085828601611755565b9150509250929050565b6000602082840312156117c0576117bf6116db565b5b60006117ce84828501611755565b91505092915050565b60008115159050919050565b6117ec816117d7565b82525050565b600060208201905061180760008301846117e3565b92915050565b60008060408385031215611824576118236116db565b5b600061183285828601611729565b925050602061184385828601611729565b9150509250929050565b61185681611700565b82525050565b6000602082019050611871600083018461184d565b92915050565b60006020828403121561188d5761188c6116db565b5b600061189b84828501611729565b91505092915050565b600080600080608085870312156118be576118bd6116db565b5b60006118cc87828801611729565b94505060206118dd87828801611755565b93505060406118ee87828801611729565b92505060606118ff87828801611755565b91505092959194509250565b600060e082019050611920600083018a6116b1565b61192d602083018961184d565b61193a604083018861184d565b61194760608301876116b1565b611954608083018661184d565b61196160a08301856116b1565b61196e60c08301846116b1565b98975050505050505050565b600060608201905061198f600083018661184d565b61199c602083018561184d565b6119a960408301846116b1565b949350505050565b6119ba816117d7565b81146119c557600080fd5b50565b6000815190506119d7816119b1565b92915050565b6000602082840312156119f3576119f26116db565b5b6000611a01848285016119c8565b91505092915050565b7f4e487b7100000000000000000000000000000000000000000000000000000000600052601160045260246000fd5b6000611a44826116a7565b9150611a4f836116a7565b9250827fffffffffffffffffffffffffffffffffffffffffffffffffffffffffffffffff03821115611a8457611a83611a0a565b5b828201905092915050565b6000604082019050611aa460008301856116b1565b611ab160208301846116b1565b9392505050565b600082825260208201905092915050565b7f496e76616c696420757365720000000000000000000000000000000000000000600082015250565b6000611aff600c83611ab8565b9150611b0a82611ac9565b602082019050919050565b60006020820190508181036000830152611b2e81611af2565b9050919050565b7f6f72646572206e6f742065786973740000000000000000000000000000000000600082015250565b6000611b6b600f83611ab8565b9150611b7682611b35565b602082019050919050565b60006020820190508181036000830152611b9a81611b5e565b9050919050565b7f4f72646572206e6f742065786974730000000000000000000000000000000000600082015250565b6000611bd7600f83611ab8565b9150611be282611ba1565b602082019050919050565b60006020820190508181036000830152611c0681611bca565b9050919050565b7f4f726465722043616e63656c6564000000000000000000000000000000000000600082015250565b6000611c43600e83611ab8565b9150611c4e82611c0d565b602082019050919050565b60006020820190508181036000830152611c7281611c36565b9050919050565b7f4f726465722046696c6c65640000000000000000000000000000000000000000600082015250565b6000611caf600c83611ab8565b9150611cba82611c79565b602082019050919050565b60006020820190508181036000830152611cde81611ca2565b9050919050565b7f496e73756666696369656e742042616c616e6365000000000000000000000000600082015250565b6000611d1b601483611ab8565b9150611d2682611ce5565b602082019050919050565b60006020820190508181036000830152611d4a81611d0e565b9050919050565b6000611d5c826116a7565b91507fffffffffffffffffffffffffffffffffffffffffffffffffffffffffffffffff821415611d8f57611d8e611a0a565b5b600182019050919050565b7f496e73756666696369656e742042616c6e616365000000000000000000000000600082015250565b6000611dd0601483611ab8565b9150611ddb82611d9a565b602082019050919050565b60006020820190508181036000830152611dff81611dc3565b9050919050565b6000611e11826116a7565b9150611e1c836116a7565b925082821015611e2f57611e2e611a0a565b5b828203905092915050565b6000604082019050611e4f600083018561184d565b611e5c60208301846116b1565b9392505050565b6000611e6e826116a7565b9150611e79836116a7565b9250817fffffffffffffffffffffffffffffffffffffffffffffffffffffffffffffffff0483118215151615611eb257611eb1611a0a565b5b828202905092915050565b7f4e487b7100000000000000000000000000000000000000000000000000000000600052601260045260246000fd5b6000611ef7826116a7565b9150611f02836116a7565b925082611f1257611f11611ebd565b5b828204905092915050565b600061010082019050611f33600083018b6116b1565b611f40602083018a61184d565b611f4d604083018961184d565b611f5a60608301886116b1565b611f67608083018761184d565b611f7460a08301866116b1565b611f8160c083018561184d565b611f8e60e08301846116b1565b999850505050505050505056fea26469706673582212203dfc5ed868f848762e160955dae0d4e8292c5bd93d06734828ca50380191674364736f6c63430008090033",
  "linkReferences": {},
  "deployedLinkReferences": {}
}